:020000040800F2
:10000000002800205D180008ED170008F31700080D
:10001000F9170008FF170008051800080000000085
:100020000000000000000000000000000B180008A5
:100030001718000800000000231800082F180008F7
:10004000A5180008A5180008A5180008A51800089C
:10005000A5180008A5180008A5180008A51800088C
:10006000A5180008A5180008A5180008A51800087C
:10007000A5180008A5180008A5180008A51800086C
:10008000A5180008A5180008A5180008A51800085C
:10009000A5180008A5180008A5180008A51800084C
:1000A000A5180008A5180008A5180008A51800083C
:1000B0003D180008A518000800000000A518000859
:1000C000A51800080000000000000000A5180008A6
:1000D00000000000A5180008A51800080000000096
:1000E000A5180008A5180008A518000800000000C1
:1000F0000000000000000000000000000000000000
:0C01000000000000000000005FF808F1A3
:10010C0010B5054C237833B9044B13B10448AFF345
:10011C0000800123237010BDA80000200000000007
:10012C00B02E000808B5034B1BB103490348AFF3CD
:10013C00008008BD00000000AC000020B02E0008BC
:10014C0080B500AF0421024801F0ACFE00BF80BDB9
:10015C000008014080B582B000AF78607B68032B4B
:10016C0072D801A252F823F085010008B9010008E9
:10017C00ED0100082102000800220821354801F099
:10018C0079FE01221021334801F074FE0122402136
:10019C00304801F06FFE012280212E4801F06AFEEA
:1001AC002D4B1B68184600F07FFE4EE00122082103
:1001BC00284801F05FFE00221021264801F05AFE6B
:1001CC0001224021234801F055FE012280212148C3
:1001DC0001F050FE204B5B68184600F065FE34E0E1
:1001EC00012208211B4801F045FE0122102119486B
:1001FC0001F040FE00224021164801F03BFE012296
:10020C008021144801F036FE134B9B68184600F011
:10021C004BFE1AE0012208210E4801F02BFE0122B0
:10022C0010210C4801F026FE01224021094801F062
:10023C0021FE00228021074801F01CFE064BDB68E2
:10024C00184600F031FE00E000BF00BF0837BD4685
:10025C0080BD00BF000801400000002080B400AF4A
:10026C001A4B1B681A4A82FB03129210DB17D31A23
:10027C00184A1360154B1968154B83FB01239A1010
:10028C00CB17D21A13469B0013445B00CA1A114BAE
:10029C005A60114B1B680E4A82FB03129210DB173B
:1002AC00D31A0C4A93600C4B1968094B83FB01233E
:1002BC009A10CB17D21A13469B0013445B00CA1A30
:1002CC00044BDA6000BFBD4680BC7047C8000020FC
:1002DC006766666600000020CC00002080B400AF8A
:1002EC00134B1B680133124A1360114B1B683B2BD9
:1002FC0007DD0F4B00221A600E4B1B6801330D4AB1
:10030C0013600C4B1B683B2B07DD0A4B00221A6059
:10031C00094B1B680133084A1360074B1B68172BEA
:10032C0002DD054B00221A6000BFBD4680BC704741
:10033C00D0000020CC000020C800002080B582B086
:10034C0000AF786001224FF480718C4801F092FD6F
:10035C0001224FF40071894801F08CFD01224FF409
:10036C008061864801F086FD01224FF400618348CC
:10037C0001F080FD01224FF48051804801F07AFD9C
:10038C0001224FF400517D4801F074FD01224FF41D
:10039C0080417A4801F06EFD01224FF4004177480C
:1003AC0001F068FD764B1B781A467B6842FA03F322
:1003BC0003F00103002B0CBF01230023DBB21A4610
:1003CC004FF480716F4801F055FD6D4B5B781A4608
:1003DC007B6842FA03F303F00103002B0CBF0123EB
:1003EC000023DBB21A464FF40071664801F042FD5F
:1003FC00634B9B781A467B6842FA03F303F00103C4
:10040C00002B0CBF01230023DBB21A464FF4806192
:10041C005C4801F02FFD5A4BDB781A467B6842FA98
:10042C0003F303F00103002B0CBF01230023DBB209
:10043C001A464FF40061534801F01CFD504B1B79D8
:10044C001A467B6842FA03F303F00103002B0CBF3E
:10045C0001230023DBB21A464FF48051494801F0C6
:10046C0009FD474B5B791A467B6842FA03F303F0AC
:10047C000103002B0CBF01230023DBB21A464FF4FF
:10048C000051404801F0F6FC3D4B9B791A467B68C5
:10049C0042FA03F303F00103002B0CBF01230023EA
:1004AC00DBB21A464FF48041364801F0E3FC344B82
:1004BC00DB791A467B6842FA03F303F00103002B45
:1004CC000CBF01230023DBB21A464FF400412D4828
:1004DC0001F0D0FC7B68072B4AD801A252F823F01C
:1004EC000D0500081B050008290500083705000844
:1004FC004505000853050008610500086F05000854
:10050C0000224FF480711D4801F0B4FC31E0002250
:10051C004FF40071194801F0ADFC2AE000224FF4B1
:10052C008061164801F0A6FC23E000224FF4006124
:10053C00124801F09FFC1CE000224FF480510F4840
:10054C0001F098FC15E000224FF400510B4801F02B
:10055C0091FC0EE000224FF48041084801F08AFC27
:10056C0007E000224FF40041044801F083FC00E056
:10057C0000BF00BF0837BD4680BD00BF000801406A
:10058C0010000020000C014080B400AFAD4B1B6884
:10059C005A4203F00F0302F00F0258BF5342AA4A0B
:1005AC00D35CDB015AB2A74B1B680133594203F0F1
:1005BC000F0301F00F0158BF4B42A349CB5C9B01C9
:1005CC005BB213435AB29F4B1B680233594203F080
:1005DC000F0301F00F0158BF4B429B49CB5C5B01F1
:1005EC005BB213435AB2974B1B680333594203F067
:1005FC000F0301F00F0158BF4B429349CB5C1B0119
:10060C005BB213435AB28F4B1B680433594203F04D
:10061C000F0301F00F0158BF4B428B49CB5CDB0041
:10062C005BB213435AB2874B1B680533594203F034
:10063C000F0301F00F0158BF4B428349CB5C9B0069
:10064C005BB213435AB27F4B1B680633594203F01B
:10065C000F0301F00F0158BF4B427B49CB5C5B0091
:10066C005BB213435AB2774B1B680733594203F002
:10067C000F0301F00F0158BF4B427349CB5C5BB2C7
:10068C0013435BB2DAB2714B1A706E4B1B685A4251
:10069C0003F00F0302F00F0258BF53426A4A13448F
:1006AC001B7CDB015AB2674B1B680133594203F0C8
:1006BC000F0301F00F0158BF4B4263490B441B7CE5
:1006CC009B015BB213435AB25E4B1B680233594217
:1006DC0003F00F0301F00F0158BF4B425A490B4472
:1006EC001B7C5B015BB213435AB2564B1B68033342
:1006FC00594203F00F0301F00F0158BF4B4252490E
:10070C000B441B7C1B015BB213435AB24D4B1B6851
:10071C000433594203F00F0301F00F0158BF4B4251
:10072C0049490B441B7CDB005BB213435AB2454B6B
:10073C001B680533594203F00F0301F00F0158BF3A
:10074C004B4241490B441B7C9B005BB213435AB296
:10075C003C4B1B680633594203F00F0301F00F01A9
:10076C0058BF4B4238490B441B7C5B005BB21343B4
:10077C005AB2344B1B680733594203F00F0301F094
:10078C000F0158BF4B4230490B441B7C5BB21343E7
:10079C005BB2DAB22D4B5A702A4B1B685A4203F0EB
:1007AC000F0302F00F0258BF5342274A134493F829
:1007BC002030DB015AB2234B1B680133594203F042
:1007CC000F0301F00F0158BF4B421F490B4493F824
:1007DC0020309B015BB213435AB21A4B1B68023395
:1007EC00594203F00F0301F00F0158BF4B42164959
:1007FC000B4493F820305B015BB213435AB2114B9C
:10080C001B680333594203F00F0301F00F0158BF6B
:10081C004B420D490B4493F820301B015BB2134340
:10082C005AB2084B1B680433594203F00F0301F012
:10083C000F0158BF4B4204490B4493F82030DB00A6
:10084C0006E000BF980000201800002010000020D7
:10085C005BB213435AB2B54B1B680533594203F0D4
:10086C000F0301F00F0158BF4B42B1490B4493F8F1
:10087C0020309B005BB213435AB2AC4B1B6806335F
:10088C00594203F00F0301F00F0158BF4B42A84926
:10089C000B4493F820305B005BB213435AB2A34B6A
:1008AC001B680733594203F00F0301F00F0158BFC7
:1008BC004B429F490B4493F820305BB213435BB21D
:1008CC00DAB29C4B9A70994B1B685A4203F00F0397
:1008DC0002F00F0258BF5342954A134493F830303C
:1008EC00DB015AB2914B1B680133594203F00F03E1
:1008FC0001F00F0158BF4B428D490B4493F8303037
:10090C009B015BB213435AB2884B1B6802335942AA
:10091C0003F00F0301F00F0158BF4B4284490B4405
:10092C0093F830305B015BB213435AB27F4B1B68B8
:10093C000333594203F00F0301F00F0158BF4B4230
:10094C007B490B4493F830301B015BB213435AB212
:10095C00764B1B680433594203F00F0301F00F016F
:10096C0058BF4B4272490B4493F83030DB005BB2FA
:10097C0013435AB26D4B1B680533594203F00F03F6
:10098C0001F00F0158BF4B4269490B4493F83030CA
:10099C009B005BB213435AB2644B1B68063359423B
:1009AC0003F00F0301F00F0158BF4B4260490B4499
:1009BC0093F830305B005BB213435AB25B4B1B684D
:1009CC000733594203F00F0301F00F0158BF4B429C
:1009DC0057490B4493F830305BB213435BB2DAB235
:1009EC00544BDA70514B1B685A4203F00F0302F060
:1009FC000F0258BF53424E4A134493F84030DB0168
:100A0C005AB24A4B1B680133594203F00F0301F0F1
:100A1C000F0158BF4B4246490B4493F840309B01A1
:100A2C005BB213435AB2414B1B680233594203F079
:100A3C000F0301F00F0158BF4B423D490B4493F893
:100A4C0040305B015BB213435AB2384B1B68033323
:100A5C00594203F00F0301F00F0158BF4B423449C8
:100A6C000B4493F840301B015BB213435AB22F4B2B
:100A7C001B680433594203F00F0301F00F0158BFF8
:100A8C004B422B490B4493F84030DB005BB21343D1
:100A9C005AB2264B1B680533594203F00F0301F081
:100AAC000F0158BF4B4222490B4493F840309B0036
:100ABC005BB213435AB21D4B1B680633594203F009
:100ACC000F0301F00F0158BF4B4219490B4493F827
:100ADC0040305B005BB213435AB2144B1B680733B4
:100AEC00594203F00F0301F00F0158BF4B4210495C
:100AFC000B4493F840305BB213435BB2DAB20D4B4C
:100B0C001A710A4B1B685A4203F00F0302F00F02D2
:100B1C0058BF5342064A134493F85030DB015AB283
:100B2C00024B1B680133594206E000BF98000020BD
:100B3C00180000201000002003F00F0301F00F013B
:100B4C0058BF4B42B6490B4493F850309B015BB2F3
:100B5C0013435AB2B34B1B680233594203F00F03D1
:100B6C0001F00F0158BF4B42AD490B4493F8503084
:100B7C005B015BB213435AB2AA4B1B680333594255
:100B8C0003F00F0301F00F0158BF4B42A4490B4473
:100B9C0093F850301B015BB213435AB2A14B1B6844
:100BAC000433594203F00F0301F00F0158BF4B42BD
:100BBC009B490B4493F85030DB005BB213435AB2A1
:100BCC00984B1B680533594203F00F0301F00F01DA
:100BDC0058BF4B4292490B4493F850309B005BB288
:100BEC0013435AB28F4B1B680633594203F00F0361
:100BFC0001F00F0158BF4B4289490B4493F8503018
:100C0C005B005BB213435AB2864B1B6807335942E5
:100C1C0003F00F0301F00F0158BF4B4280490B4406
:100C2C0093F850305BB213435BB2DAB27E4B5A711D
:100C3C007C4B1B685A4203F00F0302F00F0258BFA3
:100C4C005342774A134493F86030DB015AB2754B28
:100C5C001B680133594203F00F0301F00F0158BF19
:100C6C004B426F490B4493F860309B015BB21343CA
:100C7C005AB26C4B1B680233594203F00F0301F05C
:100C8C000F0158BF4B4266490B4493F860305B012F
:100C9C005BB213435AB2634B1B680333594203F0E4
:100CAC000F0301F00F0158BF4B425D490B4493F801
:100CBC0060301B015BB213435AB25A4B1B680433AE
:100CCC00594203F00F0301F00F0158BF4B42544936
:100CDC000B4493F86030DB005BB213435AB2514BB8
:100CEC001B680533594203F00F0301F00F0158BF85
:100CFC004B424B490B4493F860309B005BB213435F
:100D0C005AB2484B1B680633594203F00F0301F0EB
:100D1C000F0158BF4B4242490B4493F860305B00C3
:100D2C005BB213435AB23F4B1B680733594203F073
:100D3C000F0301F00F0158BF4B4239490B4493F894
:100D4C0060305BB213435BB2DAB2374B9A71354BFE
:100D5C001B685A4203F00F0302F00F0258BF5342B4
:100D6C002F4A134493F87030DB015AB22D4B1B6899
:100D7C000133594203F00F0301F00F0158BF4B42EE
:100D8C0027490B4493F870309B015BB213435AB262
:100D9C00244B1B680233594203F00F0301F00F017F
:100DAC0058BF4B421E490B4493F870305B015BB249
:100DBC0013435AB21B4B1B680333594203F00F0306
:100DCC0001F00F0158BF4B4215490B4493F870309A
:100DDC001B015BB213435AB2124B1B6804335942CA
:100DEC0003F00F0301F00F0158BF4B420C490B44A9
:100DFC0093F87030DB005BB213435AB2094B1B689B
:100E0C000533594203F00F0301F00F0158BF4B4259
:100E1C0003490B4493F870309B005BB206E000BFB3
:100E2C0018000020980000201000002013435AB234
:100E3C001A4B1B680633594203F00F0301F00F01E4
:100E4C0058BF4B4216490B4493F870305B005BB2B1
:100E5C0013435AB2114B1B680733594203F00F036B
:100E6C0001F00F0158BF4B420D490B4493F8703001
:100E7C005BB213435BB2DAB20A4BDA71074B1B68F5
:100E8C000F335A4203F00F0302F00F0258BF5342C4
:100E9C00024A136000BFBD4680BC7047980000201A
:100EAC00180000201000002080B582B000AF7860E0
:100EBC007B68092B00F2808101A252F823F000BF5D
:100ECC00F50E00083D0F0008850F0008CD0F000837
:100EDC00151000085D100008A5100008ED100008A2
:100EEC00351100087D11000800220121B84800F0DE
:100EFC00C1FF00220221B64800F0BCFF00220421F1
:100F0C00B34800F0B7FF00220821B14800F0B2FF4F
:100F1C0000221021AE4800F0ADFF00222021AC4889
:100F2C0000F0A8FF01224021A94800F0A3FF4AE1EC
:100F3C0000220221A64800F09DFF00220421A448B3
:100F4C0000F098FF01220121A14800F093FF01223B
:100F5C0008219F4800F08EFF012210219C4800F0D0
:100F6C0089FF012220219A4800F084FF01224021B0
:100F7C00974800F07FFF26E100220121944800F001
:100F8C0079FF00220221924800F074FF0022082110
:100F9C008F4800F06FFF002210218D4800F06AFF8F
:100FAC00002240218A4800F065FF01220421884874
:100FBC0000F060FF01222021854800F05BFF02E178
:100FCC0000220121824800F055FF002202218048B6
:100FDC0000F050FF002204217D4800F04BFF00225E
:100FEC0008217B4800F046FF00224021784800F0A1
:100FFC0041FF01221021764800F03CFF0122202104
:10100C00734800F037FFDEE000220221704800F048
:10101C0031FF002204216E4800F02CFF0022202119
:10102C006B4800F027FF00224021694800F022FFA6
:10103C0001220121664800F01DFF012208216448AD
:10104C0000F018FF01221021614800F013FFBAE0F4
:10105C00002201215E4800F00DFF002204215C48B3
:10106C0000F008FF00220821594800F003FF00227D
:10107C002021574800F0FEFE00224021544800F089
:10108C00F9FE01220221524800F0F4FE0122102147
:10109C004F4800F0EFFE96E0002201214C4800F092
:1010AC00E9FE002204214A4800F0E4FE0022082157
:1010BC00474800F0DFFE00221021454800F0DAFE20
:1010CC0000222021424800F0D5FE00224021404859
:1010DC0000F0D0FE012202213D4800F0CBFE72E070
:1010EC00002201213A4800F0C5FE002202213848B6
:1010FC0000F0C0FE00220421354800F0BBFE0122A6
:10110C000821334800F0B6FE01221021304800F0CF
:10111C00B1FE012220212E4800F0ACFE012240211C
:10112C002B4800F0A7FE4EE000220121284800F0D9
:10113C00A1FE00220221264800F09CFE0022042180
:10114C00234800F097FE00220821214800F092FE6F
:10115C00002210211E4800F08DFE002220211C4888
:10116C0000F088FE00224021194800F083FE2AE09E
:10117C0000220121164800F07DFE002202211448B5
:10118C0000F078FE00220421114800F073FE0022CA
:10119C0008210F4800F06EFE002220210C4800F0C0
:1011AC0069FE002240210A4800F064FE0122102151
:1011BC00074800F05FFE06E001224FF6FF7104487D
:1011CC0000F058FE00BF00BF0837BD4680BD00BF11
:1011DC00000C014080B500AF01220121114800F044
:1011EC0049FE012202210F4800F044FE0122042195
:1011FC000C4800F03FFE012208210A4800F03AFE9C
:10120C0001221021074800F035FE0122202105485B
:10121C0000F030FE01224021024800F02BFE00BFFE
:10122C0080BD00BF000C014080B500AF00F036FB64
:10123C0000F068F800F0EEF800F0A0F800F040F9CB
:10124C00284B1B68012B09D14FF47A7000F07CF904
:10125C002021254800F026FEFEF772FF234B1B6869
:10126C00012B07D14FF47A7000F08AF9FFF736F8AA
:10127C00FEF7F4FF1E4B1B68012B11D1FA2000F076
:10128C009BF91C4B1B68032B02DD1A4B00221A60C6
:10129C00184B1B685A1C17490A601846FEF75AFF70
:1012AC00154B1B68012B11D1322000F0A1F9134B07
:1012BC001B68072B02DD114B00221A600F4B1B68B9
:1012CC005A1C0E490A601846FFF738F80C4B1B687D
:1012DC00012BB5D14FF4FA7000F0A6F9FFF754F9D1
:1012EC00AEE700BF200100200008014028010020CB
:1012FC0030010020C400002038010020D400002060
:10130C004001002080B590B000AF07F118032822EF
:10131C000021184601F09AFD3B1D00221A605A600C
:10132C009A60DA601A610223BB610123BB6210234D
:10133C00FB6200237B6307F11803184600F0CCFD19
:10134C000346002B01D000F0F9F80F237B6000233B
:10135C00BB600023FB6000233B6100237B613B1DD2
:10136C000021184601F03AF80346002B01D000F09A
:10137C00E5F800BF4037BD4680BD000080B586B0A3
:10138C0000AF07F1080300221A605A609A60DA6015
:10139C003B4600221A605A601D4B4FF080421A6087
:1013AC001B4B41F63F725A60194B00229A60184B46
:1013BC000922DA60164B00221A61154B00229A6141
:1013CC00134801F067F90346002B01D000F0B6F882
:1013DC004FF48053BB6007F1080319460C4801F029
:1013EC00E5FA0346002B01D000F0A8F800233B607F
:1013FC0000237B603B461946054801F0BDFC0346C3
:10140C00002B01D000F09AF800BF1837BD4680BD04
:10141C00D800002080B586B000AF07F10803002289
:10142C001A605A609A60DA60224B9B69214A43F039
:10143C00040393611F4B9B6903F004037B607B687F
:10144C001C4B9B691B4A43F008039361194B9B6926
:10145C0003F008033B603B6800224FF6FC71164812
:10146C0000F008FD00224FF67F71144800F002FDD9
:10147C004FF6FC73BB600123FB6000233B6102232E
:10148C007B6107F1080319460B4800F077FB4FF618
:10149C007F73BB600123FB6000233B6102237B61F4
:1014AC0007F108031946054800F068FB00BF183720
:1014BC00BD4680BD0010024000080140000C0140F8
:1014CC0080B500AF134801F035F9FFF783FE012218
:1014DC004FF6FF71104800F0CDFC4FF47A7000F01D
:1014EC0033F84FF47A7000F04BF8FA2000F064F8FF
:1014FC00322000F07DF84FF4FA7000F095F8074BAD
:10150C000F221A60064B3A221A60064B32221A60DE
:10151C0000BF80BDD800002000080140C80000209A
:10152C00CC000020D000002080B582B000AF7860E5
:10153C0000F096F800BF0837BD4680BD80B400AF00
:10154C0072B600BFFEE7000080B483B000AF7860D5
:10155C007B68084A82FB03129210DB17D31A064AE7
:10156C001360064B00221A6000BF0C37BD4680BCCE
:10157C00704700BF676666662401002020010020CA
:10158C0080B483B000AF78607B68084A82FB03129A
:10159C009210DB17D31A064A1360064B00221A600E
:1015AC0000BF0C37BD4680BC704700BF67666666DF
:1015BC002C0100202801002080B483B000AF78609B
:1015CC007B68084A82FB03129210DB17D31A064A77
:1015DC001360064B00221A6000BF0C37BD4680BC5E
:1015EC00704700BF6766666634010020300100203A
:1015FC0080B483B000AF78607B68084A82FB03122A
:10160C009210DB17D31A064A1360064B00221A609D
:10161C0000BF0C37BD4680BC704700BF676666666E
:10162C003C0100203801002080B483B000AF78600A
:10163C007B68084A82FB03129210DB17D31A064A06
:10164C001360064B00221A6000BF0C37BD4680BCED
:10165C00704700BF676666664401002040010020A9
:10166C0080B400AF294B1B68002B0BDD274B1B688C
:10167C00013B264A1360254B1B68002B02DC244BD4
:10168C0001221A60234B1B68002B0BDD214B1B68BE
:10169C00013B204A13601F4B1B68002B02DC1E4BC6
:1016AC0001221A601D4B1B68002B0BDD1B4B1B68AA
:1016BC00013B1A4A1360194B1B68002B02DC184BB8
:1016CC0001221A60174B1B68002B0BDD154B1B6896
:1016DC00013B144A1360134B1B68002B02DC124BAA
:1016EC0001221A60114B1B68002B0BDD0F4B1B6882
:1016FC00013B0E4A13600D4B1B68002B02DC0C4B9C
:10170C0001221A6000BFBD4680BC70472401002036
:10171C00200100202C010020280100203401002091
:10172C00300100203C010020380100204401002041
:10173C004001002080B485B000AF154B9B69144A62
:10174C0043F001039361124B9B6903F00103BB60EF
:10175C00BB680F4BDB690E4A43F08053D3610C4BD3
:10176C00DB6903F080537B607B680A4B5B68FB6032
:10177C00FB6823F0E063FB60FB6843F08063FB6075
:10178C00044AFB68536000BF1437BD4680BC7047E9
:10179C00001002400000014080B584B000AF7860BA
:1017AC007B681B68B3F1804F13D10C4BDB690B4A80
:1017BC0043F00103D361094BDB6903F00103FB60C8
:1017CC00FB68002200211C2000F0A1F91C2000F075
:1017DC00BAF900BF1037BD4680BD00BF00100240F3
:1017EC0080B400AFFEE780B400AFFEE780B400AF7A
:1017FC00FEE780B400AFFEE780B400AFFEE780B434
:10180C0000AF00BFBD4680BC704780B400AF00BFC6
:10181C00BD4680BC704780B400AF00BFBD4680BCE5
:10182C00704780B500AF00F07FF800BF80BD0000AE
:10183C0080B500AF024800F0C9FF00BF80BD00BFFB
:10184C00D800002080B400AF00BFBD4680BC7047FC
:10185C00FFF7F8FF0B480C490C4A002302E0D45860
:10186C00C4500433C4188C42F9D3094A094C0023E0
:10187C0001E013600432A242FBD301F0EFFAFFF750
:10188C00D3FC704700000020A8000020F42E0008B4
:10189C00A80000204C010020FEE7000080B500AF3E
:1018AC00084B1B68074A43F010031360032000F039
:1018BC0023F90F2000F008F8FFF73CFF002318462F
:1018CC0080BD00BF0020024080B582B000AF7860C0
:1018DC00124B1A68124B1B7819464FF47A73B3FBF0
:1018EC00F1F3B2FBF3F3184600F03BF90346002B7F
:1018FC0001D001230EE07B680F2B0AD800227968F7
:10190C004FF0FF3000F003F9064A7B6813600023A8
:10191C0000E0012318460837BD4680BD9C0000201E
:10192C00A4000020A000002080B400AF054B1B7861
:10193C001A46054B1B681344034A136000BFBD468F
:10194C0080BC7047A40000204801002080B400AF88
:10195C00024B1B681846BD4680BC704748010020EE
:10196C0080B485B000AF78607B6803F00703FB6040
:10197C000C4BDB68BB60BA684FF6FF031340BB60CF
:10198C00FB681A02BB68134343F0BF6343F4003394
:10199C00BB60044ABB68D36000BF1437BD4680BC33
:1019AC00704700BF00ED00E080B400AF044BDB6873
:1019BC001B0A03F007031846BD4680BC704700BFE6
:1019CC0000ED00E080B483B000AF0346FB7197F9E3
:1019DC000730002B0BDBFB7903F01F02064997F94C
:1019EC0007305B09012000FA02F241F8232000BF06
:1019FC000C37BD4680BC704700E100E080B483B07A
:101A0C0000AF03463960FB7197F90730002B0ADBF6
:101A1C003B68DAB20C4997F907301201D2B20B4489
:101A2C0083F800230AE03B68DAB20849FB7903F03B
:101A3C000F03043B1201D2B20B441A7600BF0C37D1
:101A4C00BD4680BC704700BF00E100E000ED00E047
:101A5C0080B489B000AFF860B9607A60FB6803F0BD
:101A6C000703FB61FB69C3F10703042B28BF0423A5
:101A7C00BB61FB690433062B02D9FB69033B00E015
:101A8C0000237B614FF0FF32BB6902FA03F3DA43A8
:101A9C00BB681A407B699A404FF0FF317B6901FAB1
:101AAC0003F3D9437B680B40134318462437BD46D8
:101ABC0080BC704780B582B000AF78607B68013B1A
:101ACC00B3F1807F01D301230FE00A4A7B68013B0D
:101ADC0053600F214FF0FF30FFF790FF054B0022B2
:101AEC009A60044B07221A60002318460837BD463B
:101AFC0080BD00BF10E000E080B582B000AF786020
:101B0C007868FFF72DFF00BF0837BD4680BD80B554
:101B1C0086B000AF0346B9607A60FB7300237B612B
:101B2C00FFF742FF78617A68B9687869FFF790FF30
:101B3C00024697F90F3011461846FFF75FFF00BFBA
:101B4C001837BD4680BD80B582B000AF0346FB712F
:101B5C0097F907301846FFF735FF00BF0837BD4629
:101B6C0080BD80B582B000AF78607868FFF7A2FFC7
:101B7C00034618460837BD4680BD000080B48BB0C4
:101B8C0000AF7860396000237B6200233B6261E127
:101B9C0001227B6A02FA03F3FB613B681B68FA695A
:101BAC001340BB61BA69FB699A4240F050813B68B3
:101BBC005B68974A93425ED0954A934275D8954A92
:101BCC00934258D0934A93426FD8934A934252D03F
:101BDC00914A934269D8914A93424CD08F4A93428E
:101BEC0063D88F4A934246D08D4A93425DD8122BCC
:101BFC002AD8122B59D801A252F823F0831C0008C2
:101C0C005D1C00086F1C0008B11C0008B71C000804
:101C1C00B71C0008B71C0008B71C0008B71C00084C
:101C2C00B71C0008B71C0008B71C0008B71C00083C
:101C3C00B71C0008B71C0008B71C0008B71C00082C
:101C4C00651C0008791C0008764A934213D02CE0DE
:101C5C003B68DB683B6229E03B68DB6804333B6232
:101C6C0024E03B68DB6808333B621FE03B68DB68C1
:101C7C000C333B621AE03B689B68002B02D10423B7
:101C8C003B6213E03B689B68012B05D108233B6248
:101C9C007B68FA691A6109E008233B627B68FA6980
:101CAC005A6103E000233B6200E000BFBB69FF2BDD
:101CBC0001D87B6801E07B6804337B61BB69FF2B37
:101CCC0002D87B6A9B0002E07B6A083B9B003B616D
:101CDC007B691A680F213B6901FA03F3DB431A4055
:101CEC00396A3B6901FA03F31A437B691A603B6852
:101CFC005B6803F08053002B00F0A9804A4B9B6972
:101D0C00494A43F001039361474B9B6903F001037C
:101D1C00BB60BB68454A7B6A9B08023352F8233090
:101D2C00FB607B6A03F003039B000F2202FA03F3B0
:101D3C00DB43FA681340FB607B683D4A93420DD04D
:101D4C007B683C4A934207D07B683B4A934201D163
:101D5C00022304E0032302E0012300E000237A6A5B
:101D6C0002F0030292009340FA681343FB602F4980
:101D7C007B6A9B080233FA6841F823203B685B6856
:101D8C0003F48013002B06D02C4B9A682B49BB69AB
:101D9C0013438B6006E0294B9A68BB69DB432749E8
:101DAC0013408B603B685B6803F40013002B06D078
:101DBC00224BDA682149BB691343CB6006E01F4B09
:101DCC00DA68BB69DB431D491340CB603B685B6839
:101DDC0003F40033002B06D0184B5A681749BB6923
:101DEC0013434B6006E0154B5A68BB69DB43134940
:101DFC0013404B603B685B6803F48033002B1FD0AF
:101E0C000E4B1A680D49BB6913430B601FE000BFF2
:101E1C0000003210000031100000221000002110D0
:101E2C0000001210000011100010024000000140D0
:101E3C0000080140000C014000100140000401406A
:101E4C000B4B1A68BB69DB43094913400B607B6A77
:101E5C0001337B623B681A687B6A22FA03F3002B1E
:101E6C007FF496AE00BF00BF2C37BD4680BC7047D8
:101E7C000004014080B483B000AF78600B467B80D7
:101E8C0013467B707B78002B03D07A887B681A61B1
:101E9C0003E07B881A047B681A6100BF0C37BD46CF
:101EAC0080BC704780B485B000AF78600B467B80F7
:101EBC007B68DB68FB607A88FB6813401A04FB685C
:101ECC00D9437B880B401A437B681A6100BF1437D7
:101EDC00BD4680BC7047000080B586B000AF78600E
:101EEC007B68002B01D1012372E27B681B6803F035
:101EFC000103002B00F08780924B5B6803F00C030E
:101F0C00042B0CD08F4B5B6803F00C03082B12D105
:101F1C008C4B5B6803F48033B3F5803F0BD1894B5A
:101F2C001B6803F40033002B6CD07B685B68002BC0
:101F3C0068D101234CE27B685B68B3F5803F06D126
:101F4C00804B1B687F4A43F4803313602EE07B6820
:101F5C005B68002B0CD17B4B1B687A4A23F48033D3
:101F6C001360784B1B68774A23F4802313601DE0C1
:101F7C007B685B68B3F5A02F0CD1724B1B68714A60
:101F8C0043F4802313606F4B1B686E4A43F4803319
:101F9C0013600BE06B4B1B686A4A23F480331360AD
:101FAC00684B1B68674A23F4802313607B685B686B
:101FBC00002B13D0FFF7CAFC386108E0FFF7C6FC12
:101FCC0002463B69D31A642B01D9032300E25D4B13
:101FDC001B6803F40033002BF0D014E0FFF7B6FCC1
:101FEC00386108E0FFF7B2FC02463B69D31A642B58
:101FFC0001D90323ECE1534B1B6803F40033002B92
:10200C00F0D100E000BF7B681B6803F00203002BDB
:10201C0063D04C4B5B6803F00C03002B0BD0494B8B
:10202C005B6803F00C03082B1CD1464B5B6803F474
:10203C008033002B16D1434B1B6803F00203002B9B
:10204C0005D07B681B69012B01D00123C0E13D4BFE
:10205C001B6823F0F8027B685B69DB00394913438A
:10206C000B603AE07B681B69002B20D0364B0122B9
:10207C001A60FFF76BFC386108E0FFF767FC02465B
:10208C003B69D31A022B01D90323A1E12D4B1B6809
:10209C0003F00203002BF0D02A4B1B6823F0F8024C
:1020AC007B685B69DB00274913430B6015E0264B0B
:1020BC0000221A60FFF74AFC386108E0FFF746FC83
:1020CC0002463B69D31A022B01D9032380E11D4B35
:1020DC001B6803F00203002BF0D17B681B6803F034
:1020EC000803002B3AD07B689B69002B19D0174B47
:1020FC0001221A60FFF72AFC386108E0FFF726FC82
:10210C0002463B69D31A022B01D9032360E10D4B24
:10211C005B6A03F00203002BF0D0012000F09CFA64
:10212C001CE00A4B00221A60FFF710FC38610FE02C
:10213C00FFF70CFC02463B69D31A022B08D9032388
:10214C0046E100BF001002400000424280044242BF
:10215C00924B5B6A03F00203002BE9D17B681B688E
:10216C0003F00403002B00F0A6800023FB758B4BBF
:10217C00DB6903F08053002B0DD1884BDB69874A58
:10218C0043F08053D361854BDB6903F08053BB6014
:10219C00BB680123FB75824B1B6803F48073002B17
:1021AC0018D17F4B1B687E4A43F480731360FFF792
:1021BC00CDFB386108E0FFF7C9FB02463B69D31A37
:1021CC00642B01D9032303E1754B1B6803F4807363
:1021DC00002BF0D07B68DB68012B06D16F4B1B6AA0
:1021EC006E4A43F0010313622DE07B68DB68002B21
:1021FC000CD16A4B1B6A694A23F001031362674BCB
:10220C001B6A664A23F0040313621CE07B68DB68DC
:10221C00052B0CD1614B1B6A604A43F0040313621B
:10222C005E4B1B6A5D4A43F0010313620BE05B4B90
:10223C001B6A5A4A23F001031362584B1B6A574A14
:10224C0023F0040313627B68DB68002B15D0FFF7C7
:10225C007DFB38610AE0FFF779FB02463B69D31A34
:10226C0041F28832934201D90323B1E04B4B1B6AF4
:10227C0003F00203002BEED014E0FFF767FB38618C
:10228C000AE0FFF763FB02463B69D31A41F288323E
:10229C00934201D903239BE0404B1B6A03F00203DA
:1022AC00002BEED1FB7D012B05D13C4BDB693B4A6E
:1022BC0023F08053D3617B68DB69002B00F08780AF
:1022CC00364B5B6803F00C03082B61D07B68DB6931
:1022DC00022B46D1334B00221A60FFF737FB3861D3
:1022EC0008E0FFF733FB02463B69D31A022B01D9F6
:1022FC0003236DE0294B1B6803F00073002BF0D116
:10230C007B681B6AB3F5803F08D1244B5B6823F4D0
:10231C0000327B689B68214913434B601F4B5B6801
:10232C0023F474127B68196A7B685B6A0B431B4944
:10233C0013434B601B4B01221A60FFF707FB3861FC
:10234C0008E0FFF703FB02463B69D31A022B01D9C5
:10235C0003233DE0114B1B6803F00073002BF0D0FE
:10236C0035E0104B00221A60FFF7F0FA386108E0F4
:10237C00FFF7ECFA02463B69D31A022B01D903236F
:10238C0026E0064B1B6803F00073002BF0D11EE017
:10239C007B68DB69012B07D1012319E00010024097
:1023AC0000700040600042420B4B5B68FB60FB68B6
:1023BC0003F480327B681B6A9A4206D1FB6803F4F3
:1023CC0070127B685B6A9A4201D0012300E0002303
:1023DC0018461837BD4680BD0010024080B584B049
:1023EC0000AF786039607B68002B01D10123D0E00D
:1023FC006A4B1B6803F007033A689A4210D9674B83
:10240C001B6823F0070265493B6813430B60634B61
:10241C001B6803F007033A689A4201D00123B8E025
:10242C007B681B6803F00203002B20D07B681B68C1
:10243C0003F00403002B05D0594B5B68584A43F456
:10244C00E06353607B681B6803F00803002B05D026
:10245C00534B5B68524A43F460535360504B5B6878
:10246C0023F0F0027B689B684D4913434B607B68FB
:10247C001B6803F00103002B40D07B685B68012BC9
:10248C0007D1474B1B6803F40033002B15D10123F4
:10249C007FE07B685B68022B07D1414B1B6803F024
:1024AC000073002B09D1012373E03D4B1B6803F033
:1024BC000203002B01D101236BE0394B5B6823F045
:1024CC0003027B685B68364913434B60FFF73EFAA7
:1024DC00F8600AE0FFF73AFA0246FB68D31A41F2B9
:1024EC008832934201D9032353E02D4B5B6803F0F0
:1024FC000C027B685B689B009A42EBD1274B1B68F4
:10250C0003F007033A689A4210D2244B1B6823F05D
:10251C00070222493B6813430B60204B1B6803F0F6
:10252C0007033A689A4201D0012332E07B681B68AA
:10253C0003F00403002B08D0194B5B6823F4E06212
:10254C007B68DB68164913434B607B681B6803F0A0
:10255C000803002B09D0124B5B6823F460527B6894
:10256C001B69DB000E4913434B6000F021F8024657
:10257C000B4B5B681B0903F00F030A49CB5C22FA77
:10258C0003F3094A1360094B1B681846FFF79CF9C3
:10259C00002318461037BD4680BD00BF0020024006
:1025AC0000100240C82E00089C000020A000002053
:1025BC0080B487B000AF0023FB600023BB60002316
:1025CC007B6100237B6000233B611E4B5B68FB60DF
:1025DC00FB6803F00C03042B02D0082B03D027E07C
:1025EC00194B3B6127E0FB689B0C03F00F03174A68
:1025FC00D35C7B60FB6803F48033002B10D0114B51
:10260C005B685B0C03F00103114AD35CBB607B6815
:10261C000D4A03FB02F2BB68B2FBF3F37B6104E0EF
:10262C007B680C4A02FB03F37B617B693B6102E034
:10263C00054B3B6100BF3B6918461C37BD4680BC4F
:10264C00704700BF0010024000127A00D82E00081C
:10265C00E82E000800093D0080B485B000AF78601A
:10266C000A4B1B680A4AA2FB03235B0A7A6802FB2B
:10267C0003F3FB6000BFFB685A1EFA60002BF9D114
:10268C0000BF00BF1437BD4680BC70479C000020C3
:10269C00D34D621080B582B000AF78607B68002BA0
:1026AC0001D1012341E07B6893F83D30DBB2002B74
:1026BC0006D17B68002283F83C207868FFF76CF821
:1026CC007B68022283F83D207B681A687B680433A0
:1026DC001946104600F056FA7B68012283F8462012
:1026EC007B68012283F83E207B68012283F83F201F
:1026FC007B68012283F840207B68012283F841200B
:10270C007B68012283F842207B68012283F84320F6
:10271C007B68012283F844207B68012283F84520E2
:10272C007B68012283F83D20002318460837BD46FC
:10273C0080BD000080B485B000AF78607B6893F8F2
:10274C003D30DBB2012B01D0012335E07B68022246
:10275C0083F83D207B681B68DA687B681B6842F055
:10276C000102DA607B681B68164A934209D07B68C9
:10277C001B68B3F1804F04D07B681B68124A9342EC
:10278C0011D17B681B689B6803F00703FB60FB6837
:10279C00062B10D07B681B681A687B681B6842F09C
:1027AC0001021A6007E07B681B681A687B681B686B
:1027BC0042F001021A60002318461437BD4680BC53
:1027CC00704700BF002C01400004004080B584B06D
:1027DC0000AF78607B681B68DB68FB607B681B68FC
:1027EC001B69BB60BB6803F00203002B20D0FB68A5
:1027FC0003F00203002B1BD07B681B686FF00202F6
:10280C001A617B6801221A777B681B689B6903F04D
:10281C000303002B03D0786800F098F905E0786882
:10282C0000F08BF9786800F09AF97B6800221A772F
:10283C00BB6803F00403002B20D0FB6803F00403F7
:10284C00002B1BD07B681B686FF004021A617B683D
:10285C0002221A777B681B689B6903F44073002B78
:10286C0003D0786800F072F905E0786800F065F93B
:10287C00786800F074F97B6800221A77BB6803F063
:10288C000803002B20D0FB6803F00803002B1BD09F
:10289C007B681B686FF008021A617B6804221A7748
:1028AC007B681B68DB6903F00303002B03D078689B
:1028BC0000F04CF905E0786800F03FF9786800F01A
:1028CC004EF97B6800221A77BB6803F01003002BCB
:1028DC0020D0FB6803F01003002B1BD07B681B6817
:1028EC006FF010021A617B6808221A777B681B68EC
:1028FC00DB6903F44073002B03D0786800F026F9F1
:10290C0005E0786800F019F9786800F028F97B6820
:10291C0000221A77BB6803F00103002B0CD0FB6874
:10292C0003F00103002B07D07B681B686FF00102DA
:10293C001A617868FEF7F8FDBB6803F08003002B82
:10294C000CD0FB6803F08003002B07D07B681B685E
:10295C006FF080021A61786800F06FFABB6803F0C0
:10296C004003002B0CD0FB6803F04003002B07D076
:10297C007B681B686FF040021A61786800F0F8F809
:10298C00BB6803F02003002B0CD0FB6803F0200382
:10299C00002B07D07B681B686FF020021A617868E7
:1029AC0000F042FA00BF1037BD4680BD80B584B040
:1029BC0000AF786039600023FB737B6893F83C3080
:1029CC00012B01D10223B4E07B68012283F83C2067
:1029DC007B68022283F83D207B681B689B68BB6088
:1029EC00BB6823F07703BB60BB6823F47F43BB60F9
:1029FC007B681B68BA689A603B681B68B3F5005F1C
:102A0C003ED0B3F5005F00F28780B3F5805F00F035
:102A1C008680B3F5805F7FD8702B1AD0702B7BD853
:102A2C00602B50D0602B77D8502B3CD0502B73D8C8
:102A3C00402B58D0402B6FD8302B64D0302B6BD818
:102A4C00202B60D0202B67D8002B5CD0102B5AD0B9
:102A5C0062E07B6818683B6899683B685A683B6819
:102A6C00DB6800F06AF97B681B689B68BB60BB681D
:102A7C0043F07703BB607B681B68BA689A604FE0D1
:102A8C007B6818683B6899683B685A683B68DB68E8
:102A9C0000F053F97B681B689A687B681B6842F4EA
:102AAC0080429A603CE07B6818683B6859683B68D8
:102ABC00DB681A4600F0CAF87B681B685021184680
:102ACC0000F021F92CE07B6818683B6859683B687A
:102ADC00DB681A4600F0E8F87B681B686021184632
:102AEC0000F011F91CE07B6818683B6859683B687A
:102AFC00DB681A4600F0AAF87B681B684021184670
:102B0C0000F001F90CE07B681A683B681B681946F9
:102B1C00104600F0F8F803E00123FB7300E000BF5F
:102B2C007B68012283F83D207B68002283F83C20DF
:102B3C00FB7B18461037BD4680BD80B483B000AF18
:102B4C00786000BF0C37BD4680BC704780B483B042
:102B5C0000AF786000BF0C37BD4680BC704780B4B6
:102B6C0083B000AF786000BF0C37BD4680BC7047A7
:102B7C0080B483B000AF786000BF0C37BD4680BC1A
:102B8C007047000080B485B000AF786039607B6816
:102B9C001B68FB607B682B4A934207D07B68B3F1C0
:102BAC00804F03D07B68284A934208D1FB6823F0FE
:102BBC007003FB603B685B68FA681343FB607B68DF
:102BCC00204A934207D07B68B3F1804F03D07B68D7
:102BDC001D4A934208D1FB6823F44073FB603B68A9
:102BEC00DB68FA681343FB60FB6823F080023B68E8
:102BFC005B691343FB607B68FA681A603B689A68F0
:102C0C007B68DA623B681A687B689A627B680D4A5B
:102C1C00934203D13B681A697B681A637B68012273
:102C2C005A617B681B6903F00103002B05D07B689C
:102C3C001B6923F001027B681A6100BF1437BD4683
:102C4C0080BC7047002C01400004004080B487B069
:102C5C0000AFF860B9607A60FB681B6A7B61FB6847
:102C6C001B6A23F00102FB681A62FB689B693B61DB
:102C7C003B6923F0F0033B617B681B013A6913430A
:102C8C003B617B6923F00A037B617A69BB68134360
:102C9C007B61FB683A699A61FB687A691A6200BFCA
:102CAC001C37BD4680BC704780B487B000AFF8605D
:102CBC00B9607A60FB681B6A7B61FB681B6A23F056
:102CCC001002FB681A62FB689B693B613B6923F449
:102CDC0070433B617B681B033A6913433B617B691F
:102CEC0023F0A0037B61BB681B017A6913437B61F2
:102CFC00FB683A699A61FB687A691A6200BF1C37F3
:102D0C00BD4680BC704780B485B000AF7860396038
:102D1C007B689B68FB60FB6823F07003FB603A6880
:102D2C00FB68134343F00703FB607B68FA689A6007
:102D3C0000BF1437BD4680BC704780B487B000AF6D
:102D4C00F860B9607A603B60FB689B687B617B696B
:102D5C0023F47F437B613B681A027B681A43BB6890
:102D6C0013437A6913437B61FB687A699A6000BFED
:102D7C001C37BD4680BC704780B485B000AF78600E
:102D8C0039607B6893F83C30012B01D1022341E080
:102D9C007B68012283F83C207B68022283F83D206B
:102DAC007B681B685B68FB607B681B689B68BB600F
:102DBC00FB6823F07003FB603B681B68FA681343E5
:102DCC00FB607B681B68FA685A607B681B68144A56
:102DDC00934209D07B681B68B3F1804F04D07B68A9
:102DEC001B68104A93420CD1BB6823F08003BB6074
:102DFC003B685B68BA681343BB607B681B68BA6846
:102E0C009A607B68012283F83D207B68002283F85E
:102E1C003C20002318461437BD4680BC704700BFC9
:102E2C00002C01400004004080B483B000AF7860F7
:102E3C0000BF0C37BD4680BC704780B483B000AF78
:102E4C00786000BF0C37BD4680BC70470346024417
:102E5C00934200D1704703F8011BF9E770B50026C7
:102E6C000C4D0D4C641BA410A64209D100F01AF8AD
:102E7C0000260A4D0A4C641BA410A64205D170BD55
:102E8C0055F8043B98470136EEE755F8043B984754
:102E9C000136F2E7EC2E0008EC2E0008EC2E0008B0
:102EAC00F02E0008F8B500BFF8BC08BC9E46704771
:0C2EBC00F8B500BFF8BC08BC9E4670478B
:102EC80000000000000000000102030406070809D2
:102ED80002030405060708090A0B0C0D0E0F101053
:042EE80001020000E3
:042EEC0031010008A8
:042EF0000D010008C8
:102EF40001000000050000000500000008000000BB
:102F0400183C66667E7E66660000000101000000D3
:102F140000000000000000000000010101010000A9
:102F24000000000000000000000101000001010099
:102F34000000000000000000000101000001010089
:102F44000000000000000000000101010101010077
:102F54000000000000000000000101010101010067
:102F64000000000000000000000101000001010059
:102F74000000000000000000000101000001010049
:102F840000000000000000000800000000127A00A9
:082F9400100000000100000024
:040000050800185D7A
:00000001FF
